:020000040000FA
:100000000C945D000C9485000C9485000C94850084
:100010000C9485000C9485000C9485000C9485004C
:100020000C9485000C9485000C9485000C94BD0301
:100030000C9485000C9485000C9485000C9485002C
:100040000C941B030C9485000C948B030C94650397
:100050000C9485000C9485000C9485000C9485000C
:100060000C9485000C9485000000000024002700FB
:100070002A0000000000250028002B0004040404CE
:100080000404040402020202020203030303030342
:10009000010204081020408001020408102001021F
:1000A00004081020000000080002010000030407FB
:1000B0000000000000000000790411241FBECFEFF3
:1000C000D8E0DEBFCDBF11E0A0E0B1E0E6E8FDE0A2
:1000D00002C005900D92AC34B107D9F722E0ACE430
:1000E000B1E001C01D92AB31B207E1F710E0CDE500
:1000F000D0E004C02197FE010E94BB06CC35D10799
:10010000C9F70E94D6040C94C1060C940000CF924B
:10011000DF92EF92FF92DC01A03282E0B807D4F5C3
:10012000A53BB10514F0A4EBB0E04091190228E81A
:1001300030E0241B310947FD3395220F331F220F76
:10014000331F6901330FEE08FF0840911A0228E5BA
:1001500032E0241B310947FD3395220F331F220F54
:10016000331F032E000C440B550B2C193D094E096F
:100170005F09B7FF02C0B0E0A0E00E94760624EB62
:1001800030E040E050E00E944C06C20ED31EE41E58
:10019000F51ED601E0911802EC3080F5209119028D
:1001A00088E890E0821B910927FD9395880F991F9D
:1001B000880F991FA817B90784F020911A0288E5C3
:1001C00092E0821B910927FD9395880F991F880F54
:1001D000991FA817B9070CF4CD010297880F991F32
:1001E0004FB7F8942E2F30E0F901EE0FFF1FE20F0A
:1001F000F31FED50FE4F928381834FBFFF90EF902E
:10020000DF90CF90089590E0FC01EC55FF4F2491D2
:10021000FC01E057FF4F3491FC01E458FF4FE4919B
:10022000EE23C9F0222339F0233001F1A8F4213064
:1002300019F1223029F1F0E0EE0FFF1FEE58FF4FC9
:10024000A591B4918FB7F894EC91611126C03095C7
:100250003E233C938FBF08952730A9F02830C9F082
:10026000243049F7809180008F7D03C08091800009
:100270008F7780938000DFCF84B58F7784BDDBCF0D
:1002800084B58F7DFBCF8091B0008F778093B000D5
:10029000D2CF8091B0008F7DF9CF3E2BDACF8E5038
:1002A000806480937C0080917A00806480937A00DF
:1002B00080917A0086FDFCCF809178009091790042
:1002C00008953FB7F8948091520190915301A09105
:1002D0005401B091550126B5A89B05C02F3F19F0D8
:1002E0000196A11DB11D3FBFBA2FA92F982F8827B6
:1002F000BC01CD01620F711D811D911D42E0660F91
:10030000771F881F991F4A95D1F70895AF92BF9222
:10031000CF92DF92EF92FF920F931F93CF93DF93D1
:100320006C017B018B01040F151FEB015E01AE1800
:10033000BF08C017D10759F06991D601ED91FC9122
:100340000190F081E02DC6010995892B79F7C5014F
:10035000DF91CF911F910F91FF90EF90DF90CF90A1
:10036000BF90AF900895FC01538D448D252F30E050
:10037000842F90E0821B930B541710F0CF960895B2
:1003800001970895FC01918D828D981761F0A28DDF
:10039000AE0FBF2FB11D5D968C91928D9F5F9F73A5
:1003A000928F90E008958FEF9FEF0895FC01918D5B
:1003B000828D981731F0828DE80FF11D858D90E0C8
:1003C00008958FEF9FEF0895FC01918D228D892F65
:1003D00090E0805C9F4F821B91098F73992708954D
:1003E00086E591E00E94E40121E0892B09F420E0F8
:1003F000822F089580E090E0892B29F00E94F0017F
:1004000081110C9400000895FC01A48DA80FB92F50
:10041000B11DA35ABF4F2C91848D90E001968F732C
:100420009927848FA689B7892C93A089B1898C914B
:10043000837080648C93938D848D981306C002889A
:10044000F389E02D80818F7D80830895EF92FF9264
:100450000F931F93CF93DF93EC0181E0888F9B8DE7
:100460008C8D98131AC0E889F989808185FF15C0A1
:100470009FB7F894EE89FF896083E889F9898081C4
:100480008370806480839FBF81E090E0DF91CF9193
:100490001F910F91FF90EF900895F62E0B8D10E0B5
:1004A0000F5F1F4F0F731127E02E8C8D8E110CC024
:1004B0000FB607FCFACFE889F989808185FFF5CF6F
:1004C000CE010E940402F1CFEB8DEC0FFD2FF11D48
:1004D000E35AFF4FF0829FB7F8940B8FEA89FB89AC
:1004E00080818062CFCFCF93DF93EC01888D88230A
:1004F000B9F0AA89BB89E889F9898C9185FD03C087
:10050000808186FD0DC00FB607FCF7CF8C9185FF6B
:10051000F2CF808185FFEDCFCE010E940402E9CFAA
:10052000DF91CF910895FC0101900020E9F7319708
:10053000AF01481B590BBC0186E591E00C94860184
:100540008F929F92AF92BF92CF92DF92EF92FF92E3
:100550000F931F93CF93DF93CDB7DEB7A1970FB65D
:10056000F894DEBF0FBECDBF6B017C01F7FE41C02A
:100570006DE286E591E00E9426028C012227332756
:10058000A9012C193D094E095F0919A2CE018196D6
:100590007C019AE0892E912CA12CB12CCA01B901C1
:1005A000A50194010E947E06605DF70162937F01C0
:1005B000211531054105510589F790E080E030971C
:1005C00019F0CF010E949302800F911FA1960FB6E0
:1005D000F894DEBF0FBECDBFDF91CF911F910F9179
:1005E000FF90EF90DF90CF90BF90AF909F908F9053
:1005F0000895AC019B0119A28E010F5D1F4F8AE087
:10060000C82ED12CE12CF12CCA01B901A701960109
:100610000E947E06605DF80162938F01211531050D
:100620004105510589F790E080E0309779F2CF01DC
:100630000E949302CBCF1F920F920FB60F921124FC
:100640002F933F938F939F93AF93BF9380914E01CE
:1006500090914F01A0915001B091510130914D0105
:1006600023E0230F2D3758F50196A11DB11D2093CE
:100670004D0180934E0190934F01A0935001B09390
:1006800051018091520190915301A0915401B09178
:1006900055010196A11DB11D809352019093530104
:1006A000A0935401B0935501BF91AF919F918F9149
:1006B0003F912F910F900FBE0F901F90189526E835
:1006C000230F0296A11DB11DD2CF1F920F920FB61C
:1006D0000F9211242F933F934F935F936F937F93C8
:1006E0008F939F93AF93BF93EF93FF9386E591E032
:1006F0000E940402FF91EF91BF91AF919F918F9162
:100700007F916F915F914F913F912F910F900FBE0D
:100710000F901F9018951F920F920FB60F921124F1
:100720002F938F939F93EF93FF93E0916601F09146
:1007300067018081E0916C01F0916D0182FD1BC029
:10074000908180916F018F5F8F732091700182176C
:1007500041F0E0916F01F0E0EA5AFE4F958F8093EF
:100760006F01FF91EF919F918F912F910F900FBE8D
:100770000F901F9018958081F4CF1F920F920FB6A3
:100780000F9211242F933F934F935F936F937F9317
:100790008F939F93AF93BF93CF93DF93EF93FF9389
:1007A00080914C01C0911702D0E087FF24C01092C5
:1007B00085001092840080914C018F5F80934C01E2
:1007C00080914C01082E000C990B8C179D0724F486
:1007D00080914C018C30C4F180918400909185000F
:1007E000049680349C4908F47AC0809184009091EA
:1007F0008500049676C080914C01082E000C990B60
:100800008C179D07C4F6E0914C018E2FEE0F990BCB
:10081000FC01EE0FFF1FE80FF91FED50FE4F808126
:1008200086FFC9CFE0914C018E2FEE0F990BFC0192
:10083000EE0FFF1FE80FF91FED50FE4F808160E0C3
:100840008F730E940301B7CF2091840030918500FF
:10085000E0914C018E2FEE0F990BFC01EE0FFF1F64
:10086000E80FF91FED50FE4F81819281820F931F97
:100870009093890080938800E0914C018E2FEE0FB9
:10088000990BFC01EE0FFF1FE80FF91FED50FE4F13
:10089000808186FF11C0E0914C018E2FEE0F990BE5
:1008A000FC01EE0FFF1FE80FF91FED50FE4F808196
:1008B00061E08F730E940301FF91EF91DF91CF916F
:1008C000BF91AF919F918F917F916F915F914F9168
:1008D0003F912F910F900FBE0F901F90189580E4BD
:1008E0009CE990938900809388008FEF80934C015E
:1008F000E3CF109259011092580188EE93E0A0E0E6
:10090000B0E080935A0190935B01A0935C01B09397
:100910005D0184E091E0909357018093560185EC4E
:1009200090E0909363018093620184EC90E0909357
:1009300065018093640180EC90E09093670180935F
:10094000660181EC90E0909369018093680182ECEC
:1009500090E090936B0180936A0186EC90E0909315
:100960006D0180936C0110926F01109270011092D2
:10097000710110927201809117028C3098F491E00D
:10098000980F909317028093180290E0FC01EE0FED
:10099000FF1FE80FF91FED50FE4F88EB9BE092839D
:1009A000818308958FEF809318020895789484B519
:1009B000826084BD84B5816084BD85B5826085BD5B
:1009C00085B5816085BD80916E00816080936E00E9
:1009D00010928100809181008260809381008091DB
:1009E000810081608093810080918000816080938C
:1009F00080008091B10084608093B1008091B0004C
:100A000081608093B00080917A00846080937A0046
:100A100080917A00826080937A0080917A00816070
:100A200080937A0080917A00806880937A00109297
:100A3000C100E0916601F091670182E08083E0915E
:100A40006201F09163011082E0916401F09165010F
:100A50008FEC808310926E01E0916A01F0916B013E
:100A600086E08083E0916801F09169018081806176
:100A70008083E0916801F0916901808188608083C2
:100A8000E0916801F0916901808180688083E09144
:100A90006801F091690180818F7D808380911802C7
:100AA0008C3008F068C0EBE9F0E02491E7E8F0E072
:100AB0008491882399F090E0880F991FFC01E859F0
:100AC000FF4FA591B491FC01EE58FF4F8591949191
:100AD0008FB7F894EC91E22BEC938FBF80911802C2
:100AE000282F30E0F901EE0FFF1FE20FF31FED504A
:100AF000FE4F9081907C9B6090831092190210921F
:100B00001A022CE0622F0E94AF06829FB0011124CE
:100B100030E020E0AB01420F531FFA01EE0FFF1F40
:100B2000E40FF51FED50FE4F908196FD16C02F5F2C
:100B30003F4F2C30310571F781110FC010928000AA
:100B400082E0809381001092850010928400B19A17
:100B500080916F00826080936F00E09118028E2F69
:100B600090E0FC01EE0FFF1FE80FF91FED50FE4F64
:100B70008081806480838AE590E00E948700412C18
:100B800094E0592E612C712C20E0222E20E0322E90
:100B90008EE00E944F015C018FE00E944F018C01AA
:100BA0006501C81AD90A0D2C000CEE08FF08A70130
:100BB00096013E5F4F4F5F4FA4EBB0E00E946B0683
:100BC000A30192010E944C06E901253B310514F076
:100BD000C4EBD0E0D7FF02C0D0E0C0E082E191E0FA
:100BE0000E949302B501BB0C880B990B0E94A002D6
:100BF0008DE191E00E949302B801110F880B990BCF
:100C00000E94A0028BE291E00E949302C701B6010C
:100C10000E94A00289E391E00E949302BE010D2E82
:100C2000000C880B990B0E94A00289E491E00E94BD
:100C30009302CE010E9487000E9461014B015C017A
:100C400084E6C82ED12CE12CF12C0E946101681998
:100C500079098A099B09683E734081059105A8F3CB
:100C600021E0C21AD108E108F10888EE880E83E07D
:100C7000981EA11CB11CC114D104E104F10429F790
:100C80002114310409F484CF0E94F001882309F46F
:100C90007FCF0E9400007CCF052E97FB1EF40094AE
:100CA0000E94630657FD07D00E947E0607FC03D012
:100CB0004EF40C94630650954095309521953F4F26
:100CC0004F4F5F4F089590958095709561957F4F38
:100CD0008F4F9F4F08950E94A006A59F900DB49F2F
:100CE000900DA49F800D911D11240895B7FF0C94C1
:100CF0006B060E946B06821B930B0895A1E21A2ECD
:100D0000AA1BBB1BFD010DC0AA1FBB1FEE1FFF1FAF
:100D1000A217B307E407F50720F0A21BB30BE40BFF
:100D2000F50B661F771F881F991F1A9469F7609546
:100D30007095809590959B01AC01BD01CF01089500
:100D4000A29FB001B39FC001A39F700D811D11240C
:100D5000911DB29F700D811D1124911D0895991B45
:100D600079E004C0991F961708F0961B881F7A95A2
:100D7000C9F780950895EE0FFF1F0590F491E02DBF
:100D80000994F894FFCF0000000026028601B30109
:100D90007302E401C201D6014C6576656C20557082
:100DA0003A2000204C6576656C20446F776E3A20BF
:100DB0000020446966666572656E63653A200020AE
:100DC0004D617070656420416E676C653A20000D5E
:020DD0000A0017
:107E0000112484B714BE81FFF0D085E080938100F7
:107E100082E08093C00088E18093C10086E0809377
:107E2000C20080E18093C4008EE0C9D0259A86E02C
:107E300020E33CEF91E0309385002093840096BBD3
:107E4000B09BFECF1D9AA8958150A9F7CC24DD24C4
:107E500088248394B5E0AB2EA1E19A2EF3E0BF2EE7
:107E6000A2D0813461F49FD0082FAFD0023811F036
:107E7000013811F484E001C083E08DD089C08234E0
:107E800011F484E103C0853419F485E0A6D080C0E4
:107E9000853579F488D0E82EFF2485D0082F10E0AE
:107EA000102F00270E291F29000F111F8ED06801E7
:107EB0006FC0863521F484E090D080E0DECF843638
:107EC00009F040C070D06FD0082F6DD080E0C81688
:107ED00080E7D80618F4F601B7BEE895C0E0D1E017
:107EE00062D089930C17E1F7F0E0CF16F0E7DF06D8
:107EF00018F0F601B7BEE89568D007B600FCFDCFD4
:107F0000A601A0E0B1E02C9130E011968C91119780
:107F100090E0982F8827822B932B1296FA010C0160
:107F200087BEE89511244E5F5F4FF1E0A038BF0790
:107F300051F7F601A7BEE89507B600FCFDCF97BE46
:107F4000E89526C08437B1F42ED02DD0F82E2BD052
:107F50003CD0F601EF2C8F010F5F1F4F84911BD097
:107F6000EA94F801C1F70894C11CD11CFA94CF0C13
:107F7000D11C0EC0853739F428D08EE10CD085E9AC
:107F80000AD08FE07ACF813511F488E018D01DD067
:107F900080E101D065CF982F8091C00085FFFCCF94
:107FA0009093C60008958091C00087FFFCCF809118
:107FB000C00084FD01C0A8958091C6000895E0E648
:107FC000F0E098E1908380830895EDDF803219F02E
:107FD00088E0F5DFFFCF84E1DECF1F93182FE3DFCA
:107FE0001150E9F7F2DF1F91089580E0E8DFEE27F6
:047FF000FF270994CA
:027FFE00040479
:00000001FF
